:100000000EC028C027C0A4C225C024C023C022C05F
:1000100003C320C01FC01EC01DC01CC01BC01124B4
:100020001FBECFE5D2E0DEBFCDBF10E0A0E6B0E05E
:10003000EAECF6E002C005900D92A037B107D9F7BF
:1000400021E0A0E7B0E001C01D92AD3FB207E1F7AB
:1000500005D239C3D5CF86B38095817008959C01B0
:10006000220F331F280F391FA901440F551F429536
:100070005295507F5427407F5427240F351F820FFD
:10008000931F009769F020E030E0E3ECF9E031974E
:10009000F1F700C000002F5F3F4F82179307A9F7C9
:1000A000089580916E00882311F186B38095817048
:1000B00090916D00913019F4882381F016C0911150
:1000C00014C0813019F080936D00089581E0809311
:1000D0006D0061E080E090E0E8D2089510926D003C
:1000E00060E080E090E0E1D2089580936D00089593
:1000F000B0990EC02FE58AEE90E0215080409040EC
:10010000E1F700C00000B09903C081E08093700067
:10011000089522E330E092E088B3892788BB82E328
:100120008A95F1F721503109B9F7C198089580E116
:1001300090E0B3D280936E0082E090E090DFB099BF
:1001400021C061E080916E00811160E080E190E06B
:10015000ACD281E090916E00911180E080936E00AE
:10016000D8DF8BE792E90197F1F700C0000080919A
:100170006E00882339F08BE792E90197F1F700C010
:100180000000C7DF0895CF93B09B0FC0C1E0C1DF6F
:100190002FE986E891E0215080409040E1F700C0CF
:1001A000000086B381708C1791F3CF9108958091F0
:1001B0006E00882331F080E090E06FD2811101C0A1
:1001C000E2DF0895CF93DF9320917000222389F01E
:1001D00067E370E04ED2D62F662359F0C0E099DF76
:1001E00087EA91E60197F1F700C00000CF5FDC13CA
:1001F000F6CFDF91CF91089580916100811107C002
:1002000080916B00811185DF84E180936100089506
:100210008091610080FF08C098B382E0892788BB85
:100220008CE38A95F1F70895C19808958F929F9273
:10023000AF92BF92CF92DF92EF92FF92CF93DF9374
:10024000FC014A015B01C081D18180819181452BF4
:10025000462B472BF9F020E030E0DF01608171810F
:100260008617970710F4808191816D917C91119789
:100270006C177D0710F4CD91DC912F5F3F4F3296C4
:100280006901032E000CEE08FF08C814D904EA0423
:10029000FB0418F38C1B9D0BDF91CF91FF90EF9027
:1002A000DF90CF90BF90AF909F908F900895CF93A5
:1002B000DF9346EC50E060E070E081E790E0B6DF6D
:1002C000EC01D695C795CE017DDFC73AD10550F038
:1002D00080916000882351F08150809360008823D2
:1002E00029F010C084E0809360000CC080E093EAA5
:1002F000A2E0B0E08093670090936800A09369004B
:10030000B0936A00DF91CF910895D1DF80916700AB
:1003100090916800A0916900B0916A00892B8A2BA6
:100320008B2B19F410926B00089584E080936B007E
:10033000089580916C00811104C084E080936B006B
:10034000089581E087B983EF91E00197F1F700C04C
:100350000000789486B1886286B9369A82E08093EC
:100360006B00089582E087B983EF91E00197F1F780
:1003700000C00000369A3699FECF369A3699FECFE5
:1003800084B195B108958091610080FDC2DE089529
:10039000E9DF8130914078F080E891E5A1E0B0E0BC
:1003A0008093630090936400A0936500B09366000F
:1003B00081E080936C008091630090916400A09133
:1003C0006500B0916600892B8A2B8B2B19F4109253
:1003D0006C00D9DF0895B09924C08BE49DE10197AA
:1003E000F1F700C00000B0991CC080E093EAA2E0E1
:1003F000B0E08093670090936800A0936900B09389
:100400006A0080E891E5A1E0B0E0809363009093FA
:100410006400A0936500B093660084E080936B0055
:10042000C198089585B78F7B85BFB99A87B18069D8
:1004300087B986B1836886B9C09AB898089587B598
:100440008B7F87BD10BE1FBC82E08CBD83EF8EBD4D
:1004500080E489BF8DE880BF7894089580E886BDE8
:1004600084E086BDDFDF44DE54DE8BE792E901974E
:10047000F1F700C000004DDE80917000882339F054
:100480008BE792E90197F1F700C0000042DE4FDEF2
:100490008EDED5DF80916B00813039F018F083302B
:1004A00039F007C0B5DE97DF04C072DF42DF01C05C
:1004B0002CDFF7DDA1DEEECF80916C008130F9F406
:1004C0008091670090916800A0916900B0916A00E6
:1004D000892B8A2B8B2B99F0809167009091680073
:1004E000A0916900B0916A000197A109B1098093B8
:1004F000670090936800A0936900B0936A008091B0
:10050000630090916400A0916500B0916600892B12
:100510008A2B8B2B99F08091630090916400A091BD
:100520006500B09166000197A109B109809363004D
:1005300090936400A0936500B09366008091610081
:10054000882329F080916100815080936100089593
:100550001F920F920FB60F9211248F939F93AF9318
:10056000BF9380916C008130F9F480916700909185
:100570006800A0916900B0916A00892B8A2B8B2BAF
:1005800099F08091670090916800A0916900B09106
:100590006A000197A109B1098093670090936800F0
:1005A000A0936900B0936A00809163009091640009
:1005B000A0916500B0916600892B8A2B8B2B99F056
:1005C0008091630090916400A0916500B0916600F5
:1005D0000197A109B1098093630090936400A093EF
:1005E0006500B093660080916100882329F08091B6
:1005F000610081508093610080916B00843019F418
:1006000081E080936B00BF91AF919F918F910F908C
:100610000FBE0F901F9018951F920F920FB60F925A
:1006200011248F939F93EF93FF93E0916200E15029
:10063000E0936200F0E084B195B1EE0FFF1FEF5838
:10064000FF4F9183808380916200811109C086B140
:10065000877D86B986EC8093620083E080936B008F
:10066000FF91EF919F918F910F900FBE0F901F9070
:100670001895AA1BBB1B51E107C0AA1FBB1FA617D9
:10068000B70710F0A61BB70B881F991F5A95A9F73B
:1006900080959095BC01CD010895E199FECF9FBB57
:1006A0008EBBE09A99278DB30895262FE199FECF4E
:1006B0001CBA9FBB8EBB2DBB0FB6F894E29AE19A91
:0A06C0000FBE01960895F894FFCFD5
:1006CA000414C68051010000A302000401010100C4
:00000001FF
