:100000000EC028C027C0A9C125C024C023C022C05B
:10001000CEC120C01FC01EC01DC01CC01BC01124EB
:100020001FBECFE5D2E0DEBFCDBF10E0A0E6B0E05E
:10003000EEE0F4E002C005900D92AE36B107D9F7BC
:1000400021E0AEE6B0E001C01D92AC3BB207E1F7A3
:100050001AD1DBC1D5CF86E490E032E028B3232764
:1000600028BB22E32A95F1F70197C1F7C1980895BB
:1000700080916100811107C080916B008111EBDFDD
:100080008AE08093610008958091610080FF08C03C
:1000900098B382E0892788BB8CE38A95F1F70895AD
:1000A000C1980895CF93DF93EC01A881B98188812D
:1000B00099814115510561057105D9F021E030E0C4
:1000C00024173507B1F0F901EE0FFF1FEC0FFD1FEC
:1000D000608171818617970710F48081918160811A
:1000E00071816A177B0710F4A081B1812F5F3F4FA8
:1000F000E7CF8A1B9B0BDF91CF91089546EA50E032
:1001000060E070E08EE690E0CDDF8435914030F025
:1001100080916000882329F0815001C087E080939E
:1001200060008091600081110CC084E190E0A0E04B
:10013000B0E08093670090936800A0936900B0934B
:100140006A000895DBDF8091670090916800A091BC
:100150006900B0916A00892B8A2B8B2B19F41092BD
:100160006B00089584E080936B00089580916C008B
:10017000811102C084E00EC081E087B983EF91E075
:100180000197F1F700C00000789486B1886286B9C3
:10019000369A82E080936B00089582E087B983EFFE
:1001A00091E00197F1F700C00000369A3699FECF32
:1001B000369A3699FECF84B195B10895EEDF81303D
:1001C000914078F08AE090E0A0E0B0E08093630096
:1001D00090936400A0936500B093660081E08093E3
:1001E0006C008091630090916400A0916500B091D3
:1001F0006600892B8A2B8B2B11F410926C000895CA
:10020000B09924C08BE49DE10197F1F700C0000094
:10021000B0991CC084E190E0A0E0B0E0809367005A
:1002200090936800A0936900B0936A008AE090E020
:10023000A0E0B0E08093630090936400A093650019
:10024000B093660084E080936B00C198089585B7F1
:100250008F7B85BFB99A87B1806987B986B1876876
:1002600086B9C09AB898089587B58B7F87BD10BEB0
:100270001FBC82E08CBD83EF8EBD80E489BF8DE81A
:1002800080BF7894089580E886BD84E086BDDFDF76
:10029000E2DE87EA91E60197F1F700C00000DBDEBD
:1002A000E3DF80916B00813041F020F0833039F43E
:1002B00049DF05C0E9DEA4DF02C080DF57DFD8DEFA
:1002C000F0CF80916C008130F9F4809167009091BB
:1002D0006800A0916900B0916A00892B8A2B8B2B52
:1002E00099F08091670090916800A0916900B091A9
:1002F0006A000197A109B109809367009093680093
:10030000A0936900B0936A008091630090916400AB
:10031000A0916500B0916600892B8A2B8B2B99F0F8
:100320008091630090916400A0916500B091660097
:100330000197A109B1098093630090936400A09391
:100340006500B093660080916100882329F0809158
:10035000610081508093610008951F920F920FB643
:100360000F9211242F933F934F935F936F937F933B
:100370008F939F93AF93BF93EF93FF93A2DF8091EF
:100380006B00843019F481E080936B00FF91EF9152
:10039000BF91AF919F918F917F916F915F914F919D
:1003A0003F912F910F900FBE0F901F9018951F92A5
:1003B0000F920FB60F9211248F939F93EF93FF9399
:1003C000E09162008FEF8E0F80936200F0E084B1C5
:1003D00095B1EE0FFF1FE259FF4F9183808380910B
:1003E0006200811109C086B1877D86B986EA809353
:1003F000620083E080936B00FF91EF919F918F915A
:0E0400000F900FBE0F901F901895F894FFCF2D
:0E040E00070AA60A0000001400000004010006
:00000001FF
