:100000000EC028C027C0E8C125C024C023C022C01C
:100010000DC220C01FC01EC01DC01CC01BC01124AB
:100020001FBECFE5D2E0DEBFCDBF10E0A0E6B0E05E
:10003000E2EBF4E002C005900D92AE36B107D9F7BD
:1000400021E0AEE6B0E001C01D92AB3FB207E1F7A0
:100050004DD12DC2D5CFB0990EC02FE58AEE90E0DC
:10006000215080409040E1F700C00000B09903C0EB
:1000700081E080936E00089582E390E032E028B33F
:10008000232728BB22E32A95F1F70197C1F7C198EE
:100090000895CF93DF9320916E00222381F062E2D6
:1000A00070E0F1D1D62FC0E0CD1748F4E5DF87EA44
:1000B00091E60197F1F700C00000CF5FF5CFDF9127
:1000C000CF91089580916100811107C080916B00EC
:1000D0008111D2DF84E180936100089580916100F5
:1000E00080FF08C098B382E0892788BB8CE38A959B
:1000F000F1F70895C1980895CF93DF93EC01A8819B
:10010000B981888199814115510561057105D9F041
:1001100020E030E024173507B1F0F901EE0FFF1FA2
:10012000EC0FFD1F608171818617970710F48081A5
:100130009181608171816A177B0710F4A081B18180
:100140002F5F3F4FE7CF8A1B9B0BDF91CF91089525
:10015000CF93DF9346EC50E060E070E08FE690E0F4
:10016000CBDFEC01D695C795CE0193DFC73AD10519
:1001700030F080916000882329F0815001C084E034
:10018000809360008091600081110CC080E093EA50
:10019000A2E0B0E08093670090936800A0936900AC
:1001A000B0936A00DF91CF910895D2DF809167000C
:1001B00090916800A0916900B0916A00892B8A2B08
:1001C0008B2B19F410926B00089584E080936B00E0
:1001D000089580916C00811102C084E00EC081E01E
:1001E00087B983EF91E00197F1F700C000007894A0
:1001F00086B1886286B9369A82E080936B00089552
:1002000082E087B983EF91E00197F1F700C0000029
:10021000369A3699FECF369A3699FECF84B195B18B
:100220000895EEDF8130914078F080E891E5A1E01B
:10023000B0E08093630090936400A0936500B09356
:10024000660081E080936C0080916300909164006F
:10025000A0916500B0916600892B8A2B8B2B11F43D
:1002600010926C000895B09924C08BE49DE1019731
:10027000F1F700C00000B0991CC080E093EAA2E052
:10028000B0E08093670090936800A0936900B093FA
:100290006A0080E891E5A1E0B0E08093630090936C
:1002A0006400A0936500B093660084E080936B00C7
:1002B000C198089585B78F7B85BFB99A87B180694A
:1002C00087B986B1846886B9C09AB898089587B509
:1002D0008B7F87BD10BE1FBC82E08CBD83EF8EBDBF
:1002E00080E489BF8DE880BF7894089580E886BD5A
:1002F00084E086BDDFDFAFDEBFDE87EA91E60197EF
:10030000F1F700C00000B8DE80916E00882339F05C
:1003100087EA91E60197F1F700C00000ADDED7DF74
:1003200080916B00813041F020F0833039F43DDF63
:1003300005C0D4DE98DF02C074DF4BDFC3DEF0CF30
:1003400080916C008130F9F4809167009091680091
:10035000A0916900B0916A00892B8A2B8B2B99F0B0
:100360008091670090916800A0916900B0916A0047
:100370000197A109B1098093670090936800A09349
:100380006900B0936A008091630090916400A0912D
:100390006500B0916600892B8A2B8B2B99F0809198
:1003A000630090916400A0916500B0916600019790
:1003B000A109B1098093630090936400A093650044
:1003C000B093660080916100882329F080916100DC
:1003D00081508093610008951F920F920FB60F9283
:1003E00011242F933F934F935F936F937F938F933A
:1003F0009F93AF93BF93EF93FF93A2DF80916B0026
:10040000843019F481E080936B00FF91EF91BF91EC
:10041000AF919F918F917F916F915F914F913F919C
:100420002F910F900FBE0F901F9018951F920F9253
:100430000FB60F9211248F939F93EF93FF93E09148
:100440006200E150E0936200F0E084B195B1EE0FFC
:10045000FF1FE159FF4F91838083809162008111DA
:1004600009C086B1877D86B986EC8093620083E0FF
:1004700080936B00FF91EF919F918F910F900FBE32
:100480000F901F901895AA1BBB1B51E107C0AA1F14
:10049000BB1FA617B70710F0A61BB70B881F991F25
:1004A0005A95A9F780959095BC01CD010895F894CF
:0204B000FFCF7C
:0E04B2000414C68051010000A30200040100E2
:00000001FF
